:10000000020003758143120129E582600302006F3B
:10001000780079007A007B007C007D00EC4D601C4C
:1000200088828983E493A3A882A9838A828B83F040
:10003000A3AA82AB831CBCFFE31D80E07582007520
:1000400083007C007D00EC4D600AE4F0A31CBCFF43
:10005000F51D80F27582007583007C007D00EC4DFB
:10006000600AE4F0A31CBCFFF51D80F21201281207
:1000700002A880FE1B5B324A004144432074657332
:10008000742070726F6772616D0A46696C653A2000
:1000900025730A436F6D70696C65643A2025732C73
:1000A0002025730A0A00433A5C55736572735C4DF0
:1000B00061686D6F75645C4465736B746F705C45EB
:1000C0004C45433239315C4C6162355C4144435F9D
:1000D00045464D382E63004D61722031302032305C
:1000E00032310032303A34323A31310056405032F7
:1000F0002E323D25372E3566562C20564050322E56
:10010000333D25372E3566562C20564050322E343E
:100110003D25372E3566562C20564050322E353D23
:1001200025372E3566560D002275A7007597DE75AA
:1001300097AD75FF8075EF0675A71075C12075A77F
:100140000075A90075A900E5A930E7FB75A903753D
:10015000A903E5A930E7FB43A41075E10175E200AE
:1001600075E340759810758DE6858D8B53890F4327
:100170008920D28ED2997582002275A700C2EF75B0
:10018000B28075BC2075B91E75E80075DF3F75B388
:1001900000D2EF22AA82438E407592B87593FF85F4
:1001A00092948593957591047B00C3EB9A500BE56F
:1001B0009130E7FB53917F0B80F075910022AA826A
:1001C000AB837C007D00C3EC9AED9B502B7E00BE80
:1001D0000400501D7582FAC002C003C004C005C0EF
:1001E00006120194D006D005D004D003D0020E80B0
:1001F000DE0CBC00D10D80CE22AA82851AF005F05B
:100200007401800225E0D5F0FBFB75A720BA00023F
:10021000800ABA0102800FBA021E8014EBF4FA526F
:10022000F1EB42D48012EBF4FA52F2EB42D58008A3
:10023000EBF4FA52F3EB42CC75A700228582BBC2E5
:10024000EDD2EC30EDFD85BD8285BE832212023CED
:100250001203B5AA82AB83ACF0FDC002C003C00498
:10026000C005906C8B75F05374401203C1AA82AB29
:1002700083ACF0FDE58124FCF581E4C0E074FCC0B2
:10028000E0747FC0E07446C0E08A828B838CF0ED1E
:1002900012049AAA82AB83ACF0FDE58124FCF581BF
:1002A0008A828B838CF0ED229001F41201BE74746B
:1002B000C0E07400C0E07480C0E0120479158115BC
:1002C00081158174E3C0E07400C0E07480C0E07404
:1002D000D7C0E07400C0E07480C0E074A6C0E074D1
:1002E00000C0E07480C0E07479C0E07400C0E074C5
:1002F00080C0E0120479E58124F4F581751A027555
:1003000082021201F9751A037582021201F9751A37
:10031000047582021201F9751A057582021201F93B
:1003200012017A75820F12024DAA82AB83ACF0FDE6
:100330008A098B0A8C0B8D0C75821012024DAA82D1
:10034000AB83ACF0FD8A0D8B0E8C0F8D1075821176
:1003500012024DAA82AB83ACF0FD8A118B128C1372
:100360008D1475821212024DAA82AB83ACF0FD8A05
:10037000158B168C178D18C002C003C004C005C0B1
:1003800011C012C013C014C00DC00EC00FC010C0E9
:1003900009C00AC00BC00C74ECC0E07400C0E0746B
:1003A00080C0E0120479E58124EDF5819001F4121A
:1003B00001BE020323E4AC83AB82FAF9748E02051A
:1003C000C212064EBC00030205EDEF60FA30D50202
:1003D000B2D1E583B4FF03020603E582B4FF030252
:1003E0000603258340072482400B0205ED24831475
:1003F0005003020603F582EA8DF0A4A8F0EA8EF01D
:10040000A428F8E435F0F9EB8DF0A428E935F0F9EB
:10041000E433CA8FF0A429F9EA35F0FAEBF88EF04C
:10042000A429F9EA35F0FAE433FBEC8DF0A429F9BC
:10043000EA35F0FAE43BFBE88FF0A42AFAEB35F05A
:10044000FBE433CCFD8EF0A42AFAEB35F0FBE43C60
:10045000FCED8FF0A42BFBEC35F0FC20E70312063B
:100460001B0205CC02100885823085833185F0326D
:10047000851933900464020A5BC008858108E50889
:1004800024FBF533E50824FBF8863008863108861E
:1004900032900464120A5BD0082212064E30D50254
:1004A000B2D1BF0009BC0003020610020603BC0063
:1004B000030205EDE583B4FF0BE582B4FF030206FA
:1004C000100205EDE582B4FF03020603C3958350D5
:1004D00007247F400B0205ED24801450030206031D
:1004E000C0E0E4CCCBCAF98D1A8E1B8F1CEF54F000
:1004F000C4F51D758306851DF0EB84F582E9C4F90A
:10050000EAC4FAEBC4FBEC540FC47803D6FC18EB36
:10051000D6FB18EAD6FA8582F0EDA4A8F0FD858214
:10052000F0EEA428FEE435F0F88582F0EFA428FF71
:10053000E435F0F8E99DF9EA9EFAEB9FFBEC98FCB4
:10054000AD1AAE1BAF1C30E7101582E92DF9EA3E5B
:10055000FAEB3FFBE43CFC80EDC082D58398C3E915
:1005600033F9EA33FAEB33FBEC33FCC3E99DEA9E43
:10057000EB9FEC9400B3E413F9D002D0E0C44AFA44
:10058000D003D0E0C44BFBD004D0E0F5F0540FC44E
:100590004CFCD082158230F40FD3EC13FCEB13FB30
:1005A000EA13FAE913F90582E930E70A74012AFA35
:1005B000E43BFBE43CFC0205E4FCABF0AA83A9822B
:1005C000749EC2D1F58212061B0205CCB98003EAE3
:1005D00013B34010EA2401FAE43BFBE43CFC500472
:1005E0007C800582BC000EBB000BBA0008E4F5F06D
:1005F000F583F58222A2D1E582138CF092F78B83EA
:100600008A8222E4F583F58275F080F4A2D1132268
:10061000E4F583F58275F0C0747F227804EC7011E4
:10062000E58224F8500AF582E4C9CACBFCD8EF224F
:10063000EC7820058220E713D5820122C3E933F943
:10064000EA33FAEB33FBEC33FCD8EA158222AA82B8
:10065000AB83A2F73392D16002D2F7F582ACF0E51A
:100660008124F9F8E6FD08E6FE0886F008E6A2F720
:100670003392D56002D2F7F583AFF022AA82748D4F
:10068000C0E07406C0E0C022C0238A82220529E4AB
:10069000B52902052A22AA8274302AFA24C6500AF1
:1006A00074072AFA3000034302208A8202067CE59E
:1006B00082FAC4540FF582C002120696D002740F5B
:1006C0005AF582020696AA24AB25AC26AD27AE28A1
:1006D000752F20EE2EFEED235401FF4206EA2AFA82
:1006E000EB33FBEC33FCED33FDC3EE952B4008EE12
:1006F000C3952BFE430201D52FD98A248B258C2646
:100700008D278E28227840E624D075F00AA4FA7846
:1007100041E624D02AFA783F8603BB2D04C3E49A2D
:10072000FA752B01C3E464808AF063F08095F05081
:1007300029752F038A0374F6252F401C052BE52FFE
:10074000142434F8E52F2434F98704A604772E1BEB
:10075000EBFA6004052F80DE8B02EA30E70D783576
:1007600086037836A6037835762E0AE52D600AE5ED
:100770002D04FB252BF52B8005300B02052B78343F
:100780008603E4BB2D0104FB70062006033007023C
:10079000052B30040302084C300557EB600C7582C2
:1007A0002DC00212067CD002801C30060C75822BF4
:1007B000C00212067CD002800D30070A758220C06C
:1007C0000212067CD00278358604BC2E0C7582306D
:1007D000C00212067CD002152CAC2C152CC3E52BC4
:1007E0009C4003020890758230C00212067CD00241
:1007F00080E7AC2C152CC3E52B9C500C758220C0D7
:100800000212067CD00280EA78348604BC2D0C7576
:10081000822DC00212067CD002801C30060C75822C
:100820002BC00212067CD002800D30070A75822090
:10083000C00212067CD00278358604BC2E52758226
:1008400030C00212067CD002152C8044EB600E757D
:10085000822DC00212067CD002152C802030060E9C
:1008600075822BC00212067CD002152C800F300737
:100870000C758220C00212067CD002152C783586B9
:1008800003BB2E0C758230C00212067CD002152CE0
:10089000752F01C20DE52F2434F88603BB450302F2
:1008A000094DBB2E348A03C3E464808BF063F0806F
:1008B00095F0500F758230C00312067CD0031B8B5D
:1008C0000280E48B02D20DE52D7038200B03020963
:1008D0004D75822E12067C8074300D278A03EB3012
:1008E000E71FC3E46480852DF063F08095F0500C21
:1008F000758230C00312067CD003152D0B8B02804D
:10090000DD8B02300D0EC3E46480852DF063F08032
:1009100095F05021E52F2434F886038B82C0021213
:10092000067CD002300D0EE52F2434F88603BB2E52
:10093000028002152D152CC3E46480852DF063F030
:100940008095F04003200D05052F020895C3E4644F
:1009500080852DF063F08095F0500A758230120684
:100960007C152D80E830040FAA2C152CEA60087540
:10097000822012067C80F122E52D7003300B0D746D
:1009800007252DFAE52CC39AF52C8006E52C24FAD0
:10099000F52C752F0078348602BA2B0F20060C78C0
:1009A000347620200705752F01052C200419AA2C68
:1009B000C3E464808AF063F08095F0500A75822069
:1009C00012067C152C80E7C20DE52F2434F8860230
:1009D000BA00028069BA451F3000027665C3E4643C
:1009E00080852DF063F08095F0500A7582301206F4
:1009F0007C152D80E8D20DC3E52F9402E433FA7004
:100A000014EA700EC3E46480852DF063F08095F0E5
:100A10004003300D16E52F2434F886028A82120630
:100A20007CE52F24FD5012152D800E7402B52F0980
:100A3000300B0675822E12067C052F0209C9300480
:100A400019AA2CC3E464808AF063F08095F0500A00
:100A500075822012067C152C80E7228582228583F0
:100A600023E4F529F52AAA30AB31AC328A828B8394
:100A70008CF012101DFD74012AF530E43BF5318C29
:100A800032EDFA7003021001BA25028003020FF959
:100A9000C204C205C206C207C208C209C20AC20B0A
:100AA000C201C202C203752B00752C00752DFFAB6D
:100AB00030AC31AD328B828C838DF012101DFAA3D5
:100AC000AB82AC838B308C318D32BA25078A82128F
:100AD000067C80928A06BE3000402E8A06EE24C62E
:100AE000402774FFB52D13E52C75F00AA4FEEA2407
:100AF000D02EF52C70BFD20580BBE52D75F00AA471
:100B0000FEEA24D02EF52D80ACBA2E0A74FFB52D46
:100B1000A4752D00809F8A06BE6100400E8A06EEF5
:100B2000248540075302DFD2008002C200BA2002AF
:100B30008075BA2303020BB6BA2A03020BBBBA2B89
:100B400002805FBA2D028055BA4202805FBA430329
:100B5000020C00BA4403020D3BBA4503020D55BA1C
:100B60004603020D51BA4703020D59BA4903020D5B
:100B70003BBA4C02803BBA4E03020D5DBA4F0302F2
:100B80000D42BA5003020CD4BA5303020C24BA55D6
:100B900003020D47BA5803020D4C020D87D204021E
:100BA0000AB5D206020AB5D207020AB5D209020A6C
:100BB000B5D20A020AB5D20B020AB574FFB52D20D0
:100BC00030090BE53314F88833862C020AB5E53377
:100BD00024FEF888338606088607188E2C020AB58C
:100BE00030090BE53314F88833862D020AB5E53356
:100BF00024FEF888338606088607188E2D020AB56B
:100C000030090AE53314F888338602800FE533246F
:100C1000FEF888338603088604188B028A8212063F
:100C20007C020D8CE53324FDF888338603088604A6
:100C300008860518188B248C258D268B828C838D35
:100C4000F0121171AB82AC838B2E74FFB52D03852E
:100C50002E2D20041DC3E52E952C5016E52CC39592
:100C60002EF52CAB2C152CEB600875822012067C1F
:100C700080F18524828525838526F012101DFBFADC
:100C80006029AB2D152DC3E464808BF063F0809553
:100C9000F050188A8212067CAB24AC25AD260BBB23
:100CA00000010C8B248C258D2680C7200403020DA7
:100CB0008CC3E52E952C4003020D8CE52CC3952E9C
:100CC000F52CAB2C152CEB7003020D8C75822012C9
:100CD000067C80EEE53324FDF8883386030886041D
:100CE00008860518188B248C258D26E526FB30E711
:100CF000047A438013EB546060047A50800AEB302E
:100D0000E6047A4980027A588A82C00212067C750B
:100D1000823A12067C75823012067C758278120641
:100D20007CD002BA4902800BBA5002800685258227
:100D30001206AF8524821206AF8051D208752B0AA5
:100D4000804A752B088045752B0A8040752B1080D2
:100D50003BD2018037D2028033D203802FE5332487
:100D6000FDF88833860308860408860518188B2446
:100D70008C258D268B828C838DF0E529121158A34A
:100D8000E52A12115880058A8212067C200106206D
:100D90000203300370E53324FCF8883386030886A9
:100DA000040886050886061818188B248C258D26BD
:100DB0008E27E524E525E526E5278B828C838DF0BB
:100DC000EE12103974FFB52D03752D06300327740C
:100DD0007F5527FB8B28E528EB2BFB8B28E526305E
:100DE000E70674014528F528E5282468400674992B
:100DF00025284002D202300206120978020A661241
:100E00000705020A66E52B7003020A667B39300982
:100E10002BE53314F88833E6FC3395E0FDFEFF8CB8
:100E2000248D258E268F2720085EAC247D007E0031
:100E30007F008C248D258E268F27804C300A1FE55D
:100E40003324FCF88833860408860508860608865D
:100E5000071818188C248D258E268F27802AE533B5
:100E600024FEF88833860408860518ED3395E0FEE5
:100E7000FF8C248D258E268F2720080CAC24AD25D1
:100E80007E007F008E268F27300B43E524452545C5
:100E900026452760397408B52B0C758230C00312C3
:100EA000067CD00380287410B52B23758230C003D4
:100EB00012067CD00330000C758278C00312067CC9
:100EC000D003800A758258C00312067CD003300814
:100ED00025AC24AD25AE26E527FF30E717C3E49CFB
:100EE000FCE49DFDE49EFEE49FFF8C248D258E2670
:100EF0008F278002C208752E00D20C8B0075280047
:100F0000C0001206C6D000200C0DE528C4FCE6FD8A
:100F10004CF61888038002A628052EB20CE524455D
:100F2000254526452770D68803E52C7003752C01CE
:100F300020051A200417E52E04FCC3952C500E75CD
:100F40008220C00312067CD003152C80E930080EE5
:100F500075822DC00312067CD003152C8024E52E4B
:100F6000602030060E75822BC00312067CD003155C
:100F70002C800F30070C758220C00312067CD00332
:100F8000152C20041EAC2C152CC3E52E9C502730AC
:100F900005047C3080027C208C82C00312067CD049
:100FA0000380E2C3E52E952C5009E52CC3952EF560
:100FB0002C8003752C008B00AB2E152EEB6022B21B
:100FC0000C200C0A08E6C4540FFB8B28800786030C
:100FD000740F5BF528852882C000120696D0008029
:100FE000D7200403020A66AB2C152CEB7003020A0F
:100FF0006675822012067C80EE8A8212067C020AC6
:1010000066852982852A8322AA82BA0A0810990253
:1010100080FB75990D10990280FB8A992220F714A4
:1010200030F6148883A88220F507E6A8837583002C
:1010300022E280F7E49322E022C0E0F84582458373
:1010400045F07009F5F0FBFCFDFE021107E823A254
:10105000F792E0F8A982AA83D2F7ABF07C007E0772
:10106000C3749798404074FF2EFE740A89F0A4F967
:1010700085F082740A8AF0A4FA85F083740A8BF0F2
:10108000A4FB740529F9EA3582FAEB3583FB740079
:1010900035F0FCC3EC13FCEB13FBEA13FAE913F98C
:1010A00008EC70EF80BAE8C3947FF88B838EF0E48D
:1010B000FBFCFDFEFF08C3E933F9EA33FAE58333AD
:1010C000F583EB3BD4FBEC3CD4FCED3DD4FDEE3E94
:1010D000D4FEEF3FD4FF602D05F074052BD4FBE464
:1010E0003CD4FCE43DD4FDE43ED4FEE43FD4FF75A3
:1010F0008204C3EF13FFEE13FEED13FDEC13FCEBC4
:1011000013FBD582EDD8AF7834D0E020E704762BFE
:101110008002762D087906E7C4540F4430F608B9EA
:101120000603762E08E7540F4430F60819B902E793
:10113000764508E5F020E704762B8004762DF4044C
:101140000875F00A844430F608E5F04430F608E407
:10115000F690003475F0402220F71030F6118883A5
:10116000A88220F507F6A88375830022F280F7F0A5
:1011700022AA82AB83ACF07D007E008A828B838CB6
:10118000F012101DFFA3AA82AB83EF60070DBD0014
:10119000EA0E80E78D828E832200000000000000AE
:00000001FF
