:100000000200037581401200D8E582600302006F90
:10001000780079007A007B007C007D00EC4D601C4C
:1000200088828983E493A3A882A9838A828B83F040
:10003000A3AA82AB831CBCFFE31D80E07582007520
:1000400083007C007D00EC4D600AE4F0A31CBCFF43
:10005000F51D80F27582007583007C007D00EC4DFB
:10006000600AE4F0A31CBCFFF51D80F21200D71259
:10007000034780FE4C434420342D6269742074652C
:1000800073743A0048656C6C6F2C20576F726C6407
:10009000210054797065207768617420796F75202C
:1000A00077616E7420746F20646973706C6179205D
:1000B000696E206C696E65203220283136206368B5
:1000C0006172206D6178293A20000A003C4E4F2071
:1000D000464C4F41543E002275A7007597DE759738
:1000E000AD75A71075C12075A70075A90075A90089
:1000F000E5A930E7FB75A90375A903E5A930E7FB7E
:1001000043A41075E10175E20075E3407598108510
:100110008E8E758DE6858D8B53890F438920D28E07
:10012000D29975820022AA82438E407592B8759347
:10013000FF8592948593957591047B00C3EB9A504B
:100140000BE59130E7FB53917F0B80F07591002216
:10015000AA82AB837C007D00C3EC9AED9B502B7E82
:1001600000BE0400501D7582FAC002C003C004C066
:1001700005C006120126D006D005D004D003D00257
:100180000E80DE0CBC00D10D80CE22D29675822866
:10019000120126C29622AA828AE0A2E79286A2E6ED
:1001A0009287A2E59290A2E49291C00212018B750F
:1001B0008228120126D0028AE0A2E39286A2E2926D
:1001C00087A2E19290A2E0929102018BAA82D2A032
:1001D0008A82120196900002020150AA82C2A08A6D
:1001E00082120196900005020150C296C2979000BB
:1001F000141201507582331201DB7582331201DB58
:100200007582321201DB7582281201DB75820C12B5
:1002100001DB7582011201DB900014020150AA82F9
:10022000AB83ACF07402B522047DC080027D808D6A
:1002300082C002C003C0041201DB9000051201500D
:10024000D004D003D0027D007E00ED2AFFEE3BF803
:100250008C018F82888389F01203AFFF60208F8228
:10026000C002C003C004C005C0061201CCD006D035
:1002700005D004D003D0020DBD00CF0E80CC3000DD
:10028000248D028E03C3EA9410EB64809480501591
:10029000758220C002C0031201CCD003D0020ABA7A
:1002A00000E30B80E02285822585832685F027E404
:1002B000F528F529E52324FFFFE52434FFF879002C
:1002C0007A00C3E99FEA648088F063F08095F0507B
:1002D00059C002C007C000C001120401AB82D001A6
:1002E000D000D007D002BB0A028003BB0D1DE52859
:1002F0002525FCE5293526FDAE278C828D838EF0E1
:10030000E412041485288285298322E92525FCEA44
:100310003526FDAE278C828D838EF0EB12041409F6
:10032000B900010A89288A298098E5282525FAE557
:10033000293526FBAC278A828B838CF0E4120414C7
:10034000852382852483221201EA752201D200903E
:10035000007475F08012021E752202D20090008493
:1003600075F08012021E7492C0E07400C0E07480C8
:10037000C0E01203E0158115811581752311E4F5A4
:100380002490002A75F0401202A674CAC0E07400DE
:10039000C0E07480C0E01203E015811581158175FD
:1003A0002202D20090002A75F04012021E80B7206F
:1003B000F71430F6148883A88220F507E6A8837521
:1003C000830022E280F7E49322E022020A4D858234
:1003D0001885831985F01A85091B9003CB0204B692
:1003E000C008858108E50824FBF51BE50824FBF817
:1003F000861808861908861A9003CB1204B6D0080E
:100400002210980280FBAA998A82C002120A4DD05B
:10041000028A822220F71030F6118883A88220F504
:1004200007F6A88375830022F280F7F022AA82746F
:100430003EC0E07404C0E0C00AC00B8A82220511ED
:10044000E4B51102051222AA8274302AFA24C65099
:100450000A74072AFA3001034302208A8202042D1B
:10046000E582FAC4540FF582C002120447D0027428
:100470000F5AF582020447AA0CAB0DAC0EAD0FAEBD
:1004800010751720EE2EFEED235401FF4206EA2AD6
:10049000FAEB33FBEC33FCED33FDC3EE9513400870
:1004A000EEC39513FE430201D517D98A0C8B0D8C30
:1004B0000E8D0F8E102285820A85830BE4F511F5CF
:1004C00012AA18AB19AC1A8A828B838CF01203AF74
:1004D000FD74012AF518E43BF5198C1AEDFA700346
:1004E000020A46BA25028003020A3EC205C206C2BB
:1004F00007C208C209C20AC20BC20CC202C203C2AE
:10050000047513007514007515FFAB18AC19AD1AFE
:100510008B828C838DF01203AFFAA3AB82AC838BFA
:10052000188C198D1ABA25078A8212042D80928A96
:1005300006BE3000402E8A06EE24C6402774FFB562
:100540001513E51475F00AA4FEEA24D02EF51470F4
:10055000BFD20680BBE51575F00AA4FEEA24D02EB2
:10056000F51580ACBA2E0A74FFB515A47515008078
:100570009F8A06BE6100400E8A06EE24854007531E
:1005800002DFD2018002C201BA20028075BA2303C1
:10059000020611BA2A03020616BA2B02805FBA2D90
:1005A000028055BA4202805FBA430302065BBA4436
:1005B00003020796BA45030207B0BA46030207AC26
:1005C000BA47030207B4BA4903020796BA4C02803D
:1005D0003BBA4E030207B8BA4F0302079DBA500355
:1005E00002072FBA530302067FBA55030207A2BAC5
:1005F00058030207A70207E2D205020510D207023C
:100600000510D208020510D20A020510D20B02050D
:1006100010D20C02051074FFB51520300A0BE51B33
:1006200014F8881B8614020510E51B24FEF8881BAD
:100630008606088607188E14020510300A0BE51B83
:1006400014F8881B8615020510E51B24FEF8881B8C
:100650008606088607188E15020510300A0AE51B63
:1006600014F8881B8602800FE51B24FEF8881B8681
:1006700003088604188B028A8212042D0207E7E51C
:100680001B24FDF8881B86030886040886051818B5
:100690008B0C8C0D8D0E8B828C838DF0120A62ABCD
:1006A00082AC838B1674FFB5150385161520051DC6
:1006B000C3E51695145016E514C39516F514AB143E
:1006C0001514EB600875822012042D80F1850C82D0
:1006D000850D83850EF01203AFFBFA6029AB15156B
:1006E00015C3E464808BF063F08095F050188A8223
:1006F00012042DAB0CAC0DAD0E0BBB00010C8B0C22
:100700008C0D8D0E80C72005030207E7C3E5169503
:100710001440030207E7E514C39516F514AB14154E
:1007200014EB70030207E775822012042D80EEE5BA
:100730001B24FDF8881B8603088604088605181804
:100740008B0C8C0D8D0EE50EFB30E7047A43801385
:10075000EB546060047A50800AEB30E6047A4980FA
:10076000027A588A82C00212042D75823A12042D30
:1007700075823012042D75827812042DD002BA4988
:1007800002800BBA50028006850D82120460850C2F
:10079000821204608051D20975130A804A751308C9
:1007A000804575130A8040751310803BD202803754
:1007B000D2038033D204802FE51B24FDF8881B86EA
:1007C0000308860408860518188B0C8C0D8D0E8B7B
:1007D000828C838DF0E511120414A3E51212041427
:1007E00080058A8212042D20020620030330045A59
:1007F000E51B24FCF8881B86030886040886050888
:1008000086061818188B0C8C0D8D0E8E0F750CCC5F
:10081000750D00750E80850C1C850D1D850E1E74D2
:1008200001251CFEE4351DFFAB1E8E0C8F0D8B0EBB
:10083000851C82851D83851EF01203AFFBFA7003B1
:100840000204C18A8212042D80CCE51370030204D5
:10085000C17B40300A2BE51B14F8881BE6FC33955E
:10086000E0FDFEFF8C0C8D0D8E0E8F0F20095EAC0F
:100870000C7D007E007F008C0C8D0D8E0E8F0F8006
:100880004C300B1FE51B24FCF8881B8604088605EA
:100890000886060886071818188C0C8D0D8E0E8F8A
:1008A0000F802AE51B24FEF8881B8604088605189D
:1008B000ED3395E0FEFF8C0C8D0D8E0E8F0F200911
:1008C0000CAC0CAD0D7E007F008E0E8F0F300C43F4
:1008D000E50C450D450E450F60397408B5130C75D0
:1008E0008230C00312042DD00380287410B5132366
:1008F000758230C00312042DD00330010C7582784C
:10090000C00312042DD003800A758258C00312045C
:100910002DD003300925AC0CAD0DAE0EE50FFF3028
:10092000E717C3E49CFCE49DFDE49EFEE49FFF8C7E
:100930000C8D0D8E0E8F0F8002C209751600D20D20
:100940008B00751000C000120477D000200D0DE55B
:1009500010C4FCE6FD4CF61888038002A6100516AC
:10096000B20DE50C450D450E450F70D68803E51414
:10097000700375140120061A200517E51604FCC340
:100980009514500E758220C00312042DD003151447
:1009900080E930090E75822DC00312042DD0031595
:1009A000148024E516602030070E75822BC00312D8
:1009B000042DD0031514800F30080C758220C0035D
:1009C00012042DD003151420051EAC141514C3E514
:1009D000169C50273006047C3080027C208C82C01C
:1009E0000312042DD00380E2C3E51695145009E5E7
:1009F00014C39516F51480037514008B00AB1615FF
:100A000016EB6022B20D200D0A08E6C4540FFB8BD2
:100A10001080078603740F5BF510851082C00012EA
:100A20000447D00080D72005030204C1AB1415147D
:100A3000EB70030204C175822012042D80EE8A82BD
:100A400012042D0204C185118285128322AA82BA62
:100A50000A0810990280FB75990D10990280FB8A93
:100A60009922AA82AB83ACF07D007E008A828B83C0
:100A70008CF01203AFFFA3AA82AB83EF60070DBD1A
:100A800000EA0E80E78D828E8322000000000000C5
:00000001FF
