:1000000002000375817D1201DDE582600302006F4D
:10001000780079007A007B007C007D00EC4D601C4C
:1000200088828983E493A3A882A9838A828B83F040
:10003000A3AA82AB831CBCFFE31D80E07582007520
:1000400083007C007D00EC4D600AE4F0A31CBCFF43
:10005000F51D80F27582007583007C007D00EC4DFB
:10006000600AE4F0A31CBCFFF51D80F21201DC1253
:100070000CD480FE0D543D2566206D732020202079
:10008000000D74696D65646966663D2566206D7353
:1000900020202020000A0020666C6F617420757398
:1000A000203D20256600207573203D202564001B1F
:1000B0005B324A0041444320746573742070726F50
:1000C0006772616D0A46696C653A2025730A436F51
:1000D0006D70696C65643A2025732C2025730A0ABB
:1000E00000433A5C55736572735C4D61686D6F7562
:1000F000645C4465736B746F705C454C4543323986
:10010000315C4C6162355C6C6162352E63004D611F
:100110007220313220323032310031373A31333AC5
:100120003130000D6D616731206D6167726D733123
:10013000203D20256620202566000D6D6167322058
:100140006D6167726D7332203D2025662020256623
:100150000070686173652025352E326620646567FE
:100160000D000D74696D6564696666323232323233
:1001700032323D2566206D7320202020000D7068EE
:100180006173652064696666323232323232323DE2
:100190002566206465677265657320007068617309
:1001A000652025352E326620646567726565730D9E
:1001B000000D70686173653D2025352E3266206420
:1001C000656772656573200056312025342E3266CE
:1001D0002056322025342E3266560D002275A70097
:1001E0007597DE7597AD75FF8075EF0675A710756D
:1001F000C12075A70075A90075A900E5A930E7FB26
:1002000075A90375A903E5A930E7FB43A41075E1BF
:100210000175E20075E340759810758DE6858D8B4C
:1002200053890F438920D28ED2997582002275A7F7
:1002300000C2EF75B28075BC2075B91E75E80075F7
:10024000DF3F75B300D2EF22AA82438E407592B889
:100250007593FF8592948593957591047B00C3EB0C
:100260009A500BE59130E7FB53917F0B80F075912D
:100270000022AA82AB837C007D00C3EC9AED9B50E8
:100280002B7E00BE0400501D7582FAC002C003C060
:1002900004C005C006120248D006D005D004D00321
:1002A000D0020E80DE0CBC00D10D80CE225389F02E
:1002B000438901C28C22AA828511F005F074018065
:1002C0000225E0D5F0FBFB75A720BA0002800ABA30
:1002D0000102800FBA021E8014EBF4FA52F1EB42D5
:1002E000D48012EBF4FA52F2EB42D58008EBF4FA28
:1002F00052F3EB42CC75A70022D2967582281202E7
:1003000048C29622AA828AE0A2E79286A2E6928753
:10031000A2E59290A2E49291C0021202F97582289D
:10032000120248D0028AE0A2E39286A2E29287A259
:10033000E19290A2E092910202F9AA82D2A08A826E
:10034000120304900002020272AA82C2A08A8212E0
:100350000304900005020272C296C2979000141224
:100360000272758233120349758233120349758212
:100370003212034975822812034975820C1203490F
:10038000758201120349900014020272AA82AB83A3
:10039000ACF07402B523047DC080027D808D82C0E4
:1003A00002C003C004120349900005120272D00477
:1003B000D003D0027D007E00ED2AFFEE3BF88C01D9
:1003C0008F82888389F0121152FF60208F82C002D1
:1003D000C003C004C005C00612033AD006D005D041
:1003E00004D003D0020DBD00CF0E80CC3000248D90
:1003F000028E03C3EA9410EB6480948050157582DA
:1004000020C002C00312033AD003D0020ABA00E3AC
:100410000B80E02285822685832785F028E4F52954
:10042000F52AE52424FFFFE52534FFF879007A005A
:10043000C3E99FEA648088F063F08095F05059C06A
:1004400002C007C000C00112131BAB82D001D00054
:10045000D007D002BB0A028003BB0D1DE52925266B
:10046000FCE52A3527FDAE288C828D838EF0E412C0
:10047000132E852982852A8322E92526FCEA352741
:10048000FDAE288C828D838EF0EB12132E09B900FD
:10049000010A89298A2A8098E5292526FAE52A353C
:1004A00027FBAC288A828B838CF0E412132E8524E0
:1004B00082852583228582BBC2EDD2EC30EDFD859D
:1004C000BD8285BE83221204B512116EAA82AB834F
:1004D000ACF0FDC002C003C004C0059049BA75F07D
:1004E0005474401211DEAA82AB83ACF0FDE5812486
:1004F000FCF581E4C0E074FCC0E0747FC0E07446A9
:10050000C0E08A828B838CF0ED1213F4AA82AB8355
:10051000ACF0FDE58124FCF5818A828B838CF0EDC3
:10052000221202AD758A00758C00C28D75220020E2
:10053000A5FD30A5FDD28C30A509108D0280F805EF
:100540002280F420A509108D0280F8052280F4C2D3
:100550008C852282121281AA82AB83ACF0FDC0028C
:10056000C003C004C00590000075F08074471211EC
:10057000DEAA82AB83ACF0FDE58124FCF581858C9D
:1005800082C002C003C004C005121281AE82AF83D4
:10059000A8F0F9C006C007C000C00190000075F0C7
:1005A0008074431211DEAE82AF83A8F0F9E5812496
:1005B000FCF581D005D004D003D002C006C007C02E
:1005C00000C0018A828B838CF0ED12128CAA82AB60
:1005D00083ACF0FDE58124FCF581AE8A7F008E823C
:1005E0008F83C002C003C004C0051213E7AE82AF00
:1005F00083A8F0F9D005D004D003D002C006C0070C
:10060000C000C0018A828B838CF0ED12128CAA820A
:10061000AB83ACF0FDE58124FCF581C002C003C0D2
:1006200004C00590F4FC75F03274341211DEAA8215
:10063000AB83ACF0FDE58124FCF581C002C003C0B2
:1006400004C005C002C003C004C00590000075F0DE
:100650007A74441211DEAE82AF83A8F0F9E58124EA
:10066000FCF581C006C007C000C0017474C0E0740E
:1006700000C0E07480C0E01212FAE58124F9F5812F
:100680009001F4120272D005D004D003D0028A8205
:100690008B838CF0ED221202AD758A00758C00C23E
:1006A0008D30A4FD20A4FDD28C7A0030A508108DD9
:1006B0000280F80A80F5C28C8A82121281AA82AB6B
:1006C00083ACF0FDC002C003C004C00590000075FB
:1006D000F08074471211DEAA82AB83ACF0FDE58195
:1006E00024FCF581858C82C002C003C004C00512C1
:1006F0001281AE82AF83A8F0F9C006C007C000C067
:100700000190000075F08074431211DEAE82AF8359
:10071000A8F0F9E58124FCF581D005D004D003D000
:1007200002C006C007C000C0018A828B838CF0ED36
:1007300012128CAA82AB83ACF0FDE58124FCF5811A
:10074000AE8A7F008E828F83C002C003C004C005C2
:100750001213E7AE82AF83A8F0F9D005D004D0031E
:10076000D002C006C007C000C0018A828B838CF013
:10077000ED12128CAA82AB83ACF0FDE58124FCF56E
:1007800081C002C003C004C00590F4FC75F032744F
:10079000341211DEAA82AB83ACF0FDE58124FCF5B6
:1007A00081C002C003C004C005C002C003C004C0B1
:1007B0000590000075F07A74441211DEAE82AF83AA
:1007C000A8F0F9E58124FCF581C006C007C000C08F
:1007D000017481C0E07400C0E07480C0E01212FABD
:1007E000E58124F9F5817495C0E07400C0E074805F
:1007F000C0E01212FA158115811581D005D004D000
:1008000003D0028A828B838CF0ED221202AD758AAE
:1008100000758C00C28D30A5FD20A5FDD28C7A001C
:1008200030A408108D0280F80A80F5C28C8A8212EA
:100830001281AA82AB83ACF0FDC002C003C004C029
:100840000590000075F08074471211DEAA82AB8318
:10085000ACF0FDE58124FCF581858C82C002C003EB
:10086000C004C005121281AE82AF83A8F0F9C006A1
:10087000C007C000C00190000075F08074431211E1
:10088000DEAE82AF83A8F0F9E58124FCF581D005C6
:10089000D004D003D002C006C007C000C0018A82C5
:1008A0008B838CF0ED12128CAA82AB83ACF0FDE549
:1008B0008124FCF581AE8A7F008E828F83C002C0C6
:1008C00003C004C0051213E7AE82AF83A8F0F9D0CD
:1008D00005D004D003D002C006C007C000C0018A02
:1008E000828B838CF0ED12128CAA82AB83ACF0FD6C
:1008F000E58124FCF581C002C003C004C00590F46A
:10090000FC75F03274341211DEAA82AB83ACF0FDB8
:10091000E58124FCF581C002C003C004C005C0020B
:10092000C003C004C00590000075F07A7444121131
:10093000DEAE82AF83A8F0F9E58124FCF581C00624
:10094000C007C000C0017481C0E07400C0E07480C2
:10095000C0E01212FAE58124F9F5817495C0E074C3
:1009600000C0E07480C0E01212FA15811581158173
:10097000D005D004D003D0028A828B838CF0ED2284
:10098000AA82AB83ACF0FDC002C003C004C005C0A6
:1009900002C003C004C0057497C0E07400C0E074D6
:1009A00080C0E01212FAE58124F9F5817495C0E067
:1009B0007400C0E07480C0E01212FA158115811530
:1009C00081D005D004D003D0028A828B838CF0EDD5
:1009D000C002C003C004C00512117A85822B858332
:1009E0002C12116EA882A983AEF0FFD005D004D0DE
:1009F00003D002C000C001C006C0078A828B838C6E
:100A0000F0ED1213DCAA82AB83ACF0FDE58124FC8F
:100A1000F581C002C003C004C00590000075F07AE3
:100A200074441211DEAA82AB83ACF0FDE58124FC94
:100A3000F581C002C003C004C005E4C0E0C0E0C04E
:100A4000E0C0E08A828B838CF0ED1211AEAE82E5BD
:100A50008124FCF581D005D004D003D002EEB4018E
:100A600000E433FE6032E4C0E0C0E0C0E0743FC0A8
:100A7000E08A828B838CF0ED12128CAE82AF83A859
:100A8000F0F9E58124FCF5818E828F8388F0E912EC
:100A9000117AAE82AF838030E4C0E0C0E0C0E07481
:100AA0003FC0E08A828B838CF0ED1213DCAA82AB0C
:100AB00083ACF0FDE58124FCF5818A828B838CF088
:100AC000ED12117AAE82AF838E028F03C002C00393
:100AD000C002C00374A6C0E07400C0E07480C0E02F
:100AE0001212FAE58124FBF5817495C0E07400C010
:100AF000E07480C0E01212FA158115811581D003CF
:100B0000D00220A4FD30A4FD852B82852C83C00259
:100B1000C003120272D003D0028A82120248758288
:100B20000F1204C675820F0204C6AA82AB83ACF012
:100B3000FDC002C003C004C005C002C003C004C0A1
:100B4000057497C0E07400C0E07480C0E01212FA2F
:100B5000E58124F9F5817495C0E07400C0E07480EB
:100B6000C0E01212FA158115811581D005D004D08C
:100B700003D0028A828B838CF0EDC002C003C004D4
:100B8000C00512117A85822D85832E12116EA882DE
:100B9000A983AEF0FFD005D004D003D002C000C0BE
:100BA00001C006C0078A828B838CF0ED1213DCAA89
:100BB00082AB83ACF0FDE58124FCF581C002C0036B
:100BC000C004C00590000075F07A74441211DEAACA
:100BD00082AB83ACF0FDE58124FCF581C002C0034B
:100BE000C004C005E4C0E0C0E0C0E0C0E08A828B81
:100BF000838CF0ED1211AEAE82E58124FCF581D03C
:100C000005D004D003D002EEB40100E433FE60321C
:100C1000E4C0E0C0E0C0E0743FC0E08A828B838C17
:100C2000F0ED12128CAE82AF83A8F0F9E58124FCBE
:100C3000F5818E828F8388F0E912117AAE82AF83BC
:100C40008030E4C0E0C0E0C0E0743FC0E08A828B46
:100C5000838CF0ED1213DCAA82AB83ACF0FDE5814E
:100C600024FCF5818A828B838CF0ED12117AAE829E
:100C7000AF838E028F03C002C003C002C00374A6FC
:100C8000C0E07400C0E07480C0E01212FAE5812474
:100C9000FBF5817495C0E07400C0E07480C0E01280
:100CA00012FA158115811581D003D00220A5FD30DF
:100CB000A5FD852D82852E83C002C003120272D04D
:100CC00003D0028A821202487582131204C675820A
:100CD000130204C61203589001F412027274AFC0DA
:100CE000E07400C0E07480C0E01212FA1581158132
:100CF0001581741AC0E07401C0E07480C0E0740E05
:100D0000C0E07401C0E07480C0E074E1C0E0740031
:100D1000C0E07480C0E074B4C0E07400C0E07480CF
:100D2000C0E01212FAE58124F4F581751102758292
:100D3000021202B67511067582021202B612022E56
:100D400012052185824085834185F042F5431206D4
:100D50009685824485834585F046F547C040C0416D
:100D6000C042C04390000075F07A74441211DEAEA8
:100D700082AF83A8F0F9E58124FCF581E4C0E0C0EE
:100D8000E07480C0E07440C0E08E828F8388F0E918
:100D90001213F4AE82AF83A8F0F9E58124FCF5814B
:100DA0008E828F8388F0E9C006C007C000C00112A0
:100DB000098085824C85834D85F04EF54FD001D05A
:100DC00000D007D0068E828F8388F0E9120B2A8527
:100DD000825085835185F052F553C044C045C046CA
:100DE000C04790000075F07A74441211DEAE82AFF5
:100DF00083A8F0F9E58124FCF581C006C007C00096
:100E0000C0017481C0E07400C0E07480C0E01212C0
:100E1000FAE58124F9F5817495C0E07400C0E074AE
:100E200080C0E01212FA15811581158174F3C0E0BB
:100E30007404C0E074B5C0E0743FC0E0854C8285A6
:100E40004D83854EF0E54F1213F48582548583550A
:100E500085F056F557E58124FCF58174F3C0E07404
:100E600004C0E074B5C0E0743FC0E0855082855195
:100E7000838552F0E5531213F48582588583598592
:100E8000F05AF55BE58124FCF581C054C055C0568D
:100E9000C057C04CC04DC04EC04F7423C0E0740159
:100EA000C0E07480C0E01212FAE58124F5F5817487
:100EB00095C0E07400C0E07480C0E01212FA1581A1
:100EC00015811581C058C059C05AC05BC050C0516F
:100ED000C052C053743AC0E07401C0E07480C0E0F6
:100EE0001212FAE58124F5F5817495C0E07400C012
:100EF000E07480C0E01212FA158115811581C0409E
:100F0000C041C042C04390000075F0B47443121356
:100F1000F4AA82AB83ACF0FDE58124FCF581C0022C
:100F2000C003C004C005C002C003C004C00585449E
:100F3000828545838546F0E5471211DE8582488526
:100F4000834985F04AF54BE58124FCF58174CDC0D9
:100F5000E074CCC0E0C0E0743DC0E08548828549C3
:100F600083854AF0E54B1211AEAE82E58124FCF593
:100F700081D005D004D003D002EE700302109BC0D4
:100F800002C003C004C00512080BAE82AF83A8F0F4
:100F9000F9D005D004D003D002C006C007C000C0FD
:100FA00001C002C003C004C0058E828F8388F0E9AF
:100FB0001211DEAA82AB83ACF0FDE58124FCF58141
:100FC000C002C003C004C00590000075F0B47443B3
:100FD0001213DCAA82AB83ACF0FDE58124FCF58121
:100FE000C002C003C004C0057451C0E07401C0E079
:100FF0007480C0E0742FC0E07400C0E07440C0E0B2
:10100000121396E58124F6F5819001F412027275AF
:101010002302D20090002F75F04012038C90000044
:1010200075F07A74441211DEAA82AB83ACF0FDE550
:101030008124FCF581C002C003C004C0057462C0F5
:10104000E07401C0E07480C0E01212FAE58124F976
:10105000F5817495C0E07400C0E07480C0E01212A5
:10106000FA158115811581C048C049C04AC04B742A
:101070007DC0E07401C0E07480C0E01212FAE58126
:1010800024F9F5817495C0E07400C0E07480C0E07C
:101090001212FA158115811581806FC048C049C0B0
:1010A0004AC04B749CC0E07401C0E07480C0E0741E
:1010B0002FC0E07400C0E07440C0E0121396E581D8
:1010C00024F6F5819001F4120272752302D2009089
:1010D000002F75F04012038CC048C049C04AC04B75
:1010E00074B1C0E07401C0E07480C0E01212FAE58F
:1010F0008124F9F5817495C0E07400C0E07480C06B
:10110000E01212FA158115811581C058C059C05AD4
:10111000C05BC054C055C056C05774C8C0E074010D
:10112000C0E07480C0E0742FC0E07400C0E0744080
:10113000C0E0121396E58124F2F5819001F41202C9
:1011400072752301D20090002F75F04012038C02BB
:101150000D4020F71430F6148883A88220F507E6A6
:10116000A88375830022E280F7E49322E022E4ACB6
:1011700083AB82FAF9748E02151C121526700AE5EB
:1011800082458345F0700122E430D112F4700BE502
:10119000F0F47006E58330E7012290800022700AA7
:1011A000E5F07006E58320E70122907FFF22FFA88B
:1011B00081181812159FD2D133E6400730E70B751E
:1011C00082002220E70675820122C2D1121581E930
:1011D0007003F5822220D101B3E433F58222121686
:1011E0004CBC00030215EBEF60FA30D502B2D1E53A
:1011F00083B4FF03021601E582B4FF030216012542
:101200008340072482400B0215EB24831450030211
:101210001601F582EA8DF0A4A8F0EA8EF0A428F871
:10122000E435F0F9EB8DF0A428E935F0F9E433CAA0
:101230008FF0A429F9EA35F0FAEBF88EF0A429F939
:10124000EA35F0FAE433FBEC8DF0A429F9EA35F045
:10125000FAE43BFBE88FF0A42AFAEB35F0FBE43329
:10126000CCFD8EF0A42AFAEB35F0FBE43CFCED8FCC
:10127000F0A42BFBEC35F0FC20E703121619021545
:10128000CAE4AC82FBFAF9748602151C12164C797A
:1012900000E583B58202800D500312167AE583C300
:1012A0009582121694E5D0C465D020E117EA2DFA94
:1012B000EB3EFBEC3FFC50097401121694EC4480A9
:1012C000FC0215CAC3EA9DFAEB9EFBEC9FFC500F93
:1012D000C3E499F9E49AFAE49BFBE49CFCB2D112D2
:1012E00016190215CA02206385826A85836B85F010
:1012F0006C85106D9012E5021AB6C008858108E56C
:101300000824FBF56DE50824FBF8866A08866B085F
:10131000866C9012E5121AB6D0082210980280FB53
:10132000AA998A82C002122063D0028A822220F700
:101330001030F6118883A88220F507F6A8837583FC
:101340000022F280F7F022AA82AB09AC0AAD0B8B27
:10135000828C838DF0EA12132E0509E4B50902058B
:101360000A2285820985830A85F00B850C6A850D22
:101370006B850E6C850F6D901347121AB6AA82AB5F
:1013800083AC09AD0AAE0B8C828D838EF0E4121310
:101390002E8A828B8322C008858108E50824F8F50F
:1013A0006DE50824FBF8860908860A08860BE5081F
:1013B00024F8F8866A08866B08866C901347121A20
:1013C000B6AA82AB83AC09AD0AAE0B8C828D838E3C
:1013D000F0E412132E8A828B83D00822A881181879
:1013E000C6B2E7C602128CAC83AB827A0079007475
:1013F0008E02208112164C30D502B2D1BF0009BC3A
:10140000000302160E021601BC00030215EBE58371
:10141000B4FF0BE582B4FF0302160E0215EBE58262
:10142000B4FF03021601C395835007247F400B02CB
:1014300015EB2480145003021601C0E0E4CCCBCAA3
:10144000F98D118E128F13EF54F0C4F514758306C5
:101450008514F0EB84F582E9C4F9EAC4FAEBC4FB25
:10146000EC540FC47803D6FC18EBD6FB18EAD6FA76
:101470008582F0EDA4A8F0FD8582F0EEA428FEE4BC
:1014800035F0F88582F0EFA428FFE435F0F8E99D07
:10149000F9EA9EFAEB9FFBEC98FCAD11AE12AF138C
:1014A00030E7101582E92DF9EA3EFAEB3FFBE43C08
:1014B000FC80EDC082D58398C3E933F9EA33FAEBB7
:1014C00033FBEC33FCC3E99DEA9EEB9FEC9400B345
:1014D000E413F9D002D0E0C44AFAD003D0E0C44B00
:1014E000FBD004D0E0F5F0540FC44CFCD082158240
:1014F00030F40FD3EC13FCEB13FBEA13FAE913F906
:101500000582E930E70A74012AFAE43BFBE43CFC7B
:101510000215E2FCABF0AA83A982749EC2D1F582C7
:101520001216190215CA1220A5C3749E958240395D
:10153000790012169430D126E9F42401F582EAF4F8
:101540003400F583EBF43400F5F0ECF43400700A69
:10155000E582458345F0700122E430E70F22EC205C
:10156000E71489828A838BF02230D10AE4F582F570
:1015700083F5F074802274FFF582F583F5F0747FB3
:10158000227901AA82E68F82B5821318E6B5F00EA1
:1015900018E6B5830918E68A82B58202790022B47A
:1015A000800FE5F0700AE5837006E58270027F0027
:1015B000EFB6801518B6001018B6000B18B6000666
:1015C00008080876002208080822B98003EA13B345
:1015D0004010EA2401FAE43BFBE43CFC50047C802C
:1015E0000582BC000EBB000BBA0008E4F5F0F583E1
:1015F000F58222A2D1E582138CF092F78B838A8246
:1016000022E4F583F58275F080F4A2D11322E4F58B
:1016100083F58275F0C0747F227804EC7011E58246
:1016200024F8500AF582E4C9CACBFCD8EF22EC7842
:1016300020058220E713D5820122C3E933F9EA337A
:10164000FAEB33FBEC33FCD8EA158222AA82AB8397
:10165000A2F73392D16002D2F7F582ACF0E5812493
:10166000F9F8E6FD08E6FE0886F008E6A2F73392F0
:10167000D56002D2F7F583AFF022E582C583F5820B
:10168000A2D133A2D592D11392D5ECCFFCEBCEFBF5
:10169000EACDFA226040F82582500274FFF582E814
:1016A00024F8501ECCCBCAF9E4CC24F85014CBCA91
:1016B000F9E4CB24F8500BCAF9E4CA24F8500379B2
:1016C000002224086010F8C3EC13FCEB13FBEA13B0
:1016D000FAE913F9D8F122AA8274E8C0E07416C0BE
:1016E000E0C05CC05D8A82220563E4B563020564E4
:1016F00022AA8274302AFA24C6500A74072AFA30C1
:1017000001034302208A820216D7E582FAC4540FED
:10171000F582C0021216F1D002740F5AF582021639
:10172000F1AA5EAB5FAC60AD61AE62756920EE2E72
:10173000FEED235401FF4206EA2AFAEB33FBEC33B9
:10174000FCED33FDC3EE95654008EEC39565FE43A1
:101750000201D569D98A5E8B5F8C608D618E6222B1
:10176000787AE624D075F00AA4FA787BE624D02AA9
:10177000FA78798603BB2D04C3E49AFA756501C330
:10178000E464808AF063F08095F050297569038ADB
:101790000374F62569401C0565E56914246EF8E5B7
:1017A00069246EF98704A604772E1BEBFA60040502
:1017B0006980DE8B02EA30E70D786F86037870A6C9
:1017C00003786F762E0AE567600AE56704FB2565F6
:1017D000F5658005300C020565786E8603E4BB2D47
:1017E0000104FB700620070330080205653005037D
:1017F0000218A7300657EB600C75822DC002121636
:10180000D7D002801C30070C75822BC0021216D76D
:10181000D002800D30080A758220C0021216D7D07F
:1018200002786F8604BC2E0C758230C0021216D767
:10183000D0021566AC661566C3E5659C40030218C8
:10184000EB758230C0021216D7D00280E7AC661565
:1018500066C3E5659C500C758220C0021216D7D075
:101860000280EA786E8604BC2D0C75822DC00212AF
:1018700016D7D002801C30070C75822BC0021216BE
:10188000D7D002800D30080A758220C0021216D708
:10189000D002786F8604BC2E52758230C0021216B8
:1018A000D7D00215668044EB600E75822DC00212FF
:1018B00016D7D0021566802030070E75822BC00225
:1018C0001216D7D0021566800F30080C758220C022
:1018D000021216D7D0021566786F8603BB2E0C75E0
:1018E0008230C0021216D7D0021566756901C20E89
:1018F000E569246EF88603BB45030219A8BB2E34A4
:101900008A03C3E464808BF063F08095F0500F7518
:101910008230C0031216D7D0031B8B0280E48B02E7
:10192000D20EE5677038200C030219A875822E12BA
:1019300016D78074300E278A03EB30E71FC3E464A8
:10194000808567F063F08095F0500C758230C0039D
:101950001216D7D00315670B8B0280DD8B02300E79
:101960000EC3E464808567F063F08095F05021E554
:1019700069246EF886038B82C0021216D7D002301B
:101980000E0EE569246EF88603BB2E0280021567F1
:101990001566C3E464808567F063F08095F04003CA
:1019A000200E0505690218F0C3E464808567F063C2
:1019B000F08095F0500A7582301216D7156780E8CE
:1019C00030050FAA661566EA60087582201216D7E0
:1019D00080F122E5677003300C0D74072567FAE586
:1019E00066C39AF5668006E56624FAF566756900B1
:1019F000786E8602BA2B0F20070C786E76202008AE
:101A0000057569010566200519AA66C3E464808A24
:101A1000F063F08095F0500A7582201216D7156693
:101A200080E7C20EE569246EF88602BA000280697A
:101A3000BA451F3001027665C3E464808567F063B0
:101A4000F08095F0500A7582301216D7156780E83D
:101A5000D20EC3E5699402E433FA7014EA700EC33F
:101A6000E464808567F063F08095F04003300E16E3
:101A7000E569246EF886028A821216D7E56924FD8C
:101A800050121567800E7402B56909300C06758214
:101A90002E1216D70569021A24300519AA66C3E466
:101AA00064808AF063F08095F0500A7582201216E7
:101AB000D7156680E72285825C85835DE4F563F552
:101AC00064AA6AAB6BAC6C8A828B838CF012115265
:101AD000FD74012AF56AE43BF56B8C6CEDFA70033A
:101AE00002205CBA25028003022054C205C206C24D
:101AF00007C208C209C20AC20BC20CC202C203C298
:101B0000047565007566007567FFAB6AAC6BAD6CFC
:101B10008B828C838DF0121152FAA3AB82AC838B33
:101B20006A8C6B8D6CBA25078A821216D780928ACE
:101B300006BE3000402E8A06EE24C6402774FFB54C
:101B40006713E56675F00AA4FEEA24D02EF56670E8
:101B5000BFD20680BBE56775F00AA4FEEA24D02E4A
:101B6000F56780ACBA2E0A74FFB567A4756700806C
:101B70009F8A06BE6100400E8A06EE248540075308
:101B800002DFD2018002C201BA20028075BA2303AB
:101B9000021C11BA2A03021C16BA2B02805FBA2D4E
:101BA000028055BA4202805FBA4303021C5BBA440A
:101BB00003021D96BA4503021DB0BA4603021DACCE
:101BC000BA4703021DB4BA4903021D96BA4C0280FB
:101BD0003BBA4E03021DB8BA4F03021D9DBA500313
:101BE000021D2FBA5303021C7FBA5503021DA2BA6D
:101BF0005803021DA7021DE2D205021B10D20702E4
:101C00001B10D208021B10D20A021B10D20B021B9F
:101C100010D20C021B1074FFB56720300A0BE56D63
:101C200014F8886D8666021B10E56D24FEF8886D39
:101C30008606088607188E66021B10300A0BE56DB3
:101C400014F8886D8667021B10E56D24FEF8886D18
:101C50008606088607188E67021B10300A0AE56D93
:101C600014F8886D8602800FE56D24FEF8886D8675
:101C700003088604188B028A821216D7021DE7E534
:101C80006D24FDF8886D86030886040886051818FB
:101C90008B5E8C5F8D608B828C838DF01221D6AB36
:101CA00082AC838B6874FFB5670385686720051D68
:101CB000C3E56895665016E566C39568F566AB663C
:101CC0001566EB60087582201216D780F1855E825A
:101CD000855F838560F0121152FBFA6029AB6715AE
:101CE00067C3E464808BF063F08095F050188A82BB
:101CF0001216D7AB5EAC5FAD600BBB00010C8B5E08
:101D00008C5F8D6080C7200503021DE7C3E56895E1
:101D1000664003021DE7E566C39568F566AB661588
:101D200066EB7003021DE77582201216D780EEE580
:101D30006D24FDF8886D860308860408860518184A
:101D40008B5E8C5F8D60E560FB30E7047A43801327
:101D5000EB546060047A50800AEB30E6047A4980E4
:101D6000027A588A82C0021216D775823A1216D7A2
:101D70007582301216D77582781216D7D002BA49FA
:101D800002800BBA50028006855F8212170A855EB8
:101D90008212170A8051D20975650A804A75650852
:101DA000804575650A8040756510803BD20280379A
:101DB000D2038033D204802FE56D24FDF8886D8630
:101DC0000308860408860518188B5E8C5F8D608B6F
:101DD000828C838DF0E56312132EA3E56412132E1B
:101DE00080058A821216D720020620030330047071
:101DF000E56D24FCF8886D860308860408860508CE
:101E000086061818188B5E8C5F8D608E61E55EE526
:101E10005FE560E5618B828C838DF0EE1220B774F4
:101E2000FFB56703756706300427747F5561FB8B28
:101E300062E562EB2BFB8B62E56030E706740145DF
:101E400062F562E56224684006749925624002D218
:101E5000033003061219D3021AC1121760021AC105
:101E6000E5657003021AC17B73300A2BE56D14F827
:101E7000886DE6FC3395E0FDFEFF8C5E8D5F8E6025
:101E80008F6120095EAC5E7D007E007F008C5E8DE0
:101E90005F8E608F61804C300B1FE56D24FCF888ED
:101EA0006D86040886050886060886071818188CAB
:101EB0005E8D5F8E608F61802AE56D24FEF8886DEF
:101EC000860408860518ED3395E0FEFF8C5E8D5F75
:101ED0008E608F6120090CAC5EAD5F7E007F008E4E
:101EE000608F61300C43E55E455F45604561603958
:101EF0007408B5650C758230C0031216D7D0038004
:101F0000287410B56523758230C0031216D7D0032C
:101F100030010C758278C0031216D7D003800A7581
:101F20008258C0031216D7D003300925AC5EAD5FCE
:101F3000AE60E561FF30E717C3E49CFCE49DFDE47F
:101F40009EFEE49FFF8C5E8D5F8E608F618002C27B
:101F500009756800D20D8B00756200C00012172150
:101F6000D000200D0DE562C4FCE6FD4CF618880398
:101F70008002A6620568B20DE55E455F4560456179
:101F800070D68803E566700375660120061A200581
:101F900017E56804FCC39566500E758220C00312D5
:101FA00016D7D003156680E930090E75822DC0035F
:101FB0001216D7D00315668024E568602030070E1E
:101FC00075822BC0031216D7D0031566800F300818
:101FD0000C758220C0031216D7D003156620051E8B
:101FE000AC661566C3E5689C50273006047C3080DB
:101FF000027C208C82C0031216D7D00380E2C3E596
:102000006895665009E566C39568F5668003756650
:10201000008B00AB681568EB6022B20D200D0A083A
:10202000E6C4540FFB8B6280078603740F5BF56276
:10203000856282C0001216F1D00080D7200503020D
:102040001AC1AB661566EB7003021AC175822012C5
:1020500016D780EE8A821216D7021AC1856382854E
:10206000648322AA82BA0A0810990280FB75990D2E
:1020700010990280FB8A9922FCABF0AA83A9827492
:102080009EF582C2D1EC30E716D2D1E9F42401F9F1
:10209000EAF43400FAEBF43400FBECF43400FC1204
:1020A00016190215CAAA82AB83A2F73392D1600235
:1020B000D2F7F582ACF022C0E0F84582458345F0C6
:1020C0007009F5F0FBFCFDFE022185E823A2F792E2
:1020D000E0F8A982AA83D2F7ABF07C007E07C37434
:1020E0009798404074FF2EFE740A89F0A4F985F099
:1020F00082740A8AF0A4FA85F083740A8BF0A4FB38
:10210000740529F9EA3582FAEB3583FB740035F062
:10211000FCC3EC13FCEB13FBEA13FAE913F908EC2C
:1021200070EF80BAE8C3947FF88B838EF0E4FBFCF9
:10213000FDFEFF08C3E933F9EA33FAE58333F5839B
:10214000EB3BD4FBEC3CD4FCED3DD4FDEE3ED4FEA9
:10215000EF3FD4FF602D05F074052BD4FBE43CD495
:10216000FCE43DD4FDE43ED4FEE43FD4FF7582049C
:10217000C3EF13FFEE13FEED13FDEC13FCEB13FBAB
:10218000D582EDD8AF786ED0E020E704762B8002C0
:10219000762D087906E7C4540F4430F608B90603D3
:1021A000762E08E7540F4430F60819B902E7764551
:1021B00008E5F020E704762B8004762DF4040875FA
:1021C000F00A844430F608E5F04430F608E4F6906E
:1021D000006E75F04022AA82AB83ACF07D007E00D9
:1021E0008A828B838CF0121152FFA3AA82AB83EFF9
:1021F00060070DBD00EA0E80E78D828E832200000D
:00000001FF
