:1000000002000375813512011EE582600302006F54
:10001000780079007A007B007C007D00EC4D601C4C
:1000200088828983E493A3A882A9838A828B83F040
:10003000A3AA82AB831CBCFFE31D80E07582007520
:1000400083007C007D00EC4D600AE4F0A31CBCFF43
:10005000F51D80F27582007583007C007D00EC4DFB
:10006000600AE4F0A31CBCFFF51D80F212011D1212
:1000700001D780FE1B5B324A0045464D3820506553
:1000800072696F64206D6561737572656D656E74FC
:100090002061742070696E2050302E312075736994
:1000A0006E672054696D657220302E0A46696C6552
:1000B0003A2025730A436F6D70696C65643A202598
:1000C000732C2025730A0A00433A5C5573657273DA
:1000D0005C4D61686D6F75645C4465736B746F70C3
:1000E0005C454C45433239315C4C6162355C50654E
:1000F00072696F6445464D382E63004D6172203140
:100100003120323032310030303A35353A33370031
:100110000D543D2566206D7320202020002275A7F8
:10012000007597DE7597AD43FF8075EF0275A710D8
:1001300075C12075A70075A90075A900E5A930E76C
:10014000FB75A90375A903E5A930E7FB43A4107566
:10015000E10175E20075E340759810858E8E758D0E
:10016000E6858D8B53890F438920D28ED299758273
:100170000022AA82438E407592B87593FF859294AF
:100180008593957591047B00C3EB9A500BE59130F4
:10019000E7FB53917F0B80F075910022AA82AB831D
:1001A000BA0004BB0001227582F9C002C00312012B
:1001B000727582F91201727582F91201727582FAF2
:1001C000120172D003D0021ABAFF011B80D25389E8
:1001D000F0438901C28C221201CE9001F412019CDD
:1001E0007474C0E07400C0E07480C0E0120359155C
:1001F00081158115817407C0E07401C0E07480C06E
:10020000E074FBC0E07400C0E07480C0E074C8C05B
:10021000E07400C0E07480C0E07479C0E07400C095
:10022000E07480C0E0120359E58124F4F581758AF9
:1002300000758C00C28D75090020A5FD30A5FDD28A
:100240008C30A509108D0280F8050980F4C28CAAB3
:10025000097B008B058A047B007A00AE8C7F0078D6
:100260000088018F008E077E00EE2AFAEF3BFBE844
:100270003CFCE93DFDAE8AE4FF3395E0F8F9EE2A57
:10028000FAEF3BFBE83CFCE93DFDEA2AF522EB33C3
:10029000F523EC33F524ED33F5259003E8E4F5F090
:1002A0001202D6AA82AB83ACF0FDC002C003C00428
:1002B000C0057410C0E07401C0E07480C0E0120397
:1002C00059E58124F9F5819001F412019C9001F423
:1002D00012019C02022EAAF0FBE5828522F0A4FC0A
:1002E000ADF0E5838522F0A42DFDE435F0FEE58236
:1002F0008523F0A42DFDE5F03EFEE433FFEA8522E0
:10030000F0A42EFEE5F03FFFE5838523F0A42EFE4A
:10031000E5F03FFFE5828524F0A42EFEE5F03FFFE7
:10032000EB8522F0A42FFFEA8523F0A42FFFE583BD
:100330008524F0A42FFFE5828525F0A42F8EF08D73
:10034000838C8222020D0685821985831A85F01B13
:10035000850A1C900344020759C008858108E508F6
:1003600024FBF51CE50824FBF8861908861A088684
:100370001B900344120759D00822AA82748BC0E054
:100380007403C0E0C00BC00C8A82220512E4B512CF
:1003900002051322AA8274302AFA24C6500A74076E
:1003A0002AFA3000034302208A8202037AE582FAA5
:1003B000C4540FF582C002120394D002740F5AF590
:1003C00082020394AA0DAB0EAC0FAD10AE117518DE
:1003D00020EE2EFEED235401FF4206EA2AFAEB330B
:1003E000FBEC33FCED33FDC3EE95144008EEC395F2
:1003F00014FE430201D518D98A0D8B0E8C0F8D1077
:100400008E11227832E624D075F00AA4FA7833E609
:1004100024D02AFA78318603BB2D04C3E49AFA75F6
:100420001401C3E464808AF063F08095F05029756C
:1004300018038A0374F62518401C0514E5181424C3
:1004400026F8E5182426F98704A604772E1BEBFA74
:100450006004051880DE8B02EA30E70D78278603FA
:100460007828A6037827762E0AE516600AE5160492
:10047000FB2514F5148005300B020514782686033D
:10048000E4BB2D0104FB70062006033007020514AF
:1004900030040302054A300557EB600C75822DC00D
:1004A0000212037AD002801C30060C75822BC00227
:1004B00012037AD002800D30070A758220C0021222
:1004C000037AD00278278604BC2E0C758230C002D5
:1004D00012037AD0021515AC151515C3E5149C400E
:1004E0000302058E758230C00212037AD00280E7C3
:1004F000AC151515C3E5149C500C758220C0021272
:10050000037AD00280EA78268604BC2D0C75822DF1
:10051000C00212037AD002801C30060C75822BC0F8
:100520000212037AD002800D30070A758220C002C1
:1005300012037AD00278278604BC2E52758230C00E
:100540000212037AD00215158044EB600E75822DDD
:10055000C00212037AD0021515802030060E758273
:100560002BC00212037AD0021515800F30070C75CC
:100570008220C00212037AD002151578278603BBA9
:100580002E0C758230C00212037AD0021515751830
:1005900001C20DE5182426F88603BB450302064B6D
:1005A000BB2E348A03C3E464808BF063F08095F043
:1005B000500F758230C00312037AD0031B8B028068
:1005C000E48B02D20DE5167038200B0302064B7542
:1005D000822E12037A8074300D278A03EB30E71FD6
:1005E000C3E464808516F063F08095F0500C75824A
:1005F00030C00312037AD00315160B8B0280DD8BFB
:1006000002300D0EC3E464808516F063F08095F02F
:100610005021E5182426F886038B82C00212037A43
:10062000D002300D0EE5182426F88603BB2E02807A
:100630000215161515C3E464808516F063F08095E5
:10064000F04003200D050518020593C3E46480857E
:1006500016F063F08095F0500A75823012037A1517
:100660001680E830040FAA151515EA600875822077
:1006700012037A80F122E5167003300B0D74072502
:1006800016FAE515C39AF5158006E51524FAF51551
:1006900075180078268602BA2B0F20060C7826766D
:1006A000202007057518010515200419AA15C3E4B3
:1006B00064808AF063F08095F0500A7582201203FE
:1006C0007A151580E7C20DE5182426F88602BA00CF
:1006D000028069BA451F3000027665C3E4648085F4
:1006E00016F063F08095F0500A75823012037A1587
:1006F0001680E8D20DC3E5189402E433FA7014EAC8
:10070000700EC3E464808516F063F08095F04003BA
:10071000300D16E5182426F886028A8212037AE53F
:100720001824FD50121516800E7402B51809300BEE
:100730000675822E12037A05180206C7300419AA1C
:1007400015C3E464808AF063F08095F0500A7582E6
:100750002012037A151580E72285820B85830CE42D
:10076000F512F513AA19AB1AAC1B8A828B838CF095
:10077000120D1BFD74012AF519E43BF51A8C1BEDD3
:10078000FA7003020CFFBA25028003020CF7C204C0
:10079000C205C206C207C208C209C20AC20BC20110
:1007A000C202C2037514007515007516FFAB19ACB3
:1007B0001AAD1B8B828C838DF0120D1BFAA3AB82BA
:1007C000AC838B198C1A8D1BBA25078A8212037A87
:1007D00080928A06BE3000402E8A06EE24C640274C
:1007E00074FFB51613E51575F00AA4FEEA24D02EA1
:1007F000F51570BFD20580BBE51675F00AA4FEEAB8
:1008000024D02EF51680ACBA2E0A74FFB516A47546
:100810001600809F8A06BE6100400E8A06EE24857F
:1008200040075302DFD2008002C200BA2002807566
:10083000BA23030208B4BA2A030208B9BA2B028009
:100840005FBA2D028055BA4202805FBA43030208A4
:10085000FEBA4403020A39BA4503020A53BA4603F0
:10086000020A4FBA4703020A57BA4903020A39BAC1
:100870004C02803BBA4E03020A5BBA4F03020A40A5
:10088000BA50030209D2BA5303020922BA5503022D
:100890000A45BA5803020A4A020A85D2040207B37B
:1008A000D2060207B3D2070207B3D2090207B3D2B6
:1008B0000A0207B3D20B0207B374FFB51620300942
:1008C0000BE51C14F8881C86150207B3E51C24FEF2
:1008D000F8881C8606088607188E150207B33009AB
:1008E0000BE51C14F8881C86160207B3E51C24FED1
:1008F000F8881C8606088607188E160207B330098A
:100900000AE51C14F8881C8602800FE51C24FEF8FA
:10091000881C8603088604188B028A8212037A02D6
:100920000A8AE51C24FDF8881C86030886040886CC
:100930000518188B0D8C0E8D0F8B828C838DF01209
:100940000E6FAB82AC838B1774FFB5160385171639
:1009500020041DC3E51795155016E515C39517F529
:1009600015AB151515EB600875822012037A80F11E
:10097000850D82850E83850FF0120D1BFBFA602911
:10098000AB161516C3E464808BF063F08095F050CD
:10099000188A8212037AAB0DAC0EAD0F0BBB0001AF
:1009A0000C8B0D8C0E8D0F80C7200403020A8AC3A6
:1009B000E51795154003020A8AE515C39517F51545
:1009C000AB151515EB7003020A8A75822012037AA3
:1009D00080EEE51C24FDF8881C8603088604088642
:1009E0000518188B0D8C0E8D0FE50FFB30E7047A80
:1009F000438013EB546060047A50800AEB30E604C5
:100A00007A4980027A588A82C00212037A75823A41
:100A100012037A75823012037A75827812037AD0C3
:100A200002BA4902800BBA50028006850E82120378
:100A3000AD850D821203AD8051D20875140A804A2B
:100A4000751408804575140A8040751410803BD2D7
:100A5000018037D2028033D203802FE51C24FDF8B9
:100A6000881C860308860408860518188B0D8C0ED2
:100A70008D0F8B828C838DF0E512120E56A3E51339
:100A8000120E5680058A8212037A20010620020384
:100A9000300370E51C24FCF8881C860308860408D3
:100AA00086050886061818188B0D8C0E8D0F8E1073
:100AB000E50DE50EE50FE5108B828C838DF0EE12CF
:100AC0000D3774FFB51603751606300327747F556E
:100AD00010FB8B11E511EB2BFB8B11E50F30E706BB
:100AE00074014511F511E51124684006749925112A
:100AF0004002D20230020612067602076412040394
:100B0000020764E51470030207647B2B30092BE5B0
:100B10001C14F8881CE6FC3395E0FDFEFF8C0D8D5F
:100B20000E8E0F8F1020085EAC0D7D007E007F00C2
:100B30008C0D8D0E8E0F8F10804C300A1FE51C24FB
:100B4000FCF8881C860408860508860608860718AF
:100B500018188C0D8D0E8E0F8F10802AE51C24FE28
:100B6000F8881C860408860518ED3395E0FEFF8C96
:100B70000D8D0E8E0F8F1020080CAC0DAD0E7E006B
:100B80007F008E0F8F10300B43E50D450E450F454E
:100B90001060397408B5140C758230C00312037AE2
:100BA000D00380287410B51423758230C00312035B
:100BB0007AD00330000C758278C00312037AD00318
:100BC000800A758258C00312037AD003300825AC1E
:100BD0000DAD0EAE0FE510FF30E717C3E49CFCE44B
:100BE0009DFDE49EFEE49FFF8C0D8D0E8E0F8F10F9
:100BF0008002C208751700D20C8B00751100C0006E
:100C00001203C4D000200C0DE511C4FCE6FD4CF627
:100C10001888038002A6110517B20CE50D450E4594
:100C20000F451070D68803E5157003751501200572
:100C30001A200417E51704FCC39515500E75822081
:100C4000C00312037AD003151580E930080E7582AF
:100C50002DC00312037AD00315158024E5176020F8
:100C600030060E75822BC00312037AD0031515804F
:100C70000F30070C758220C00312037AD0031515BC
:100C800020041EAC151515C3E5179C50273005042C
:100C90007C3080027C208C82C00312037AD00380D7
:100CA000E2C3E51795155009E515C39517F51580AD
:100CB000037515008B00AB171517EB6022B20C20E3
:100CC0000C0A08E6C4540FFB8B1180078603740FCF
:100CD0005BF511851182C000120394D00080D720EB
:100CE0000403020764AB151515EB70030207647566
:100CF000822012037A80EE8A8212037A02076485C8
:100D0000128285138322AA82BA0A0810990280FBF4
:100D100075990D10990280FB8A992220F71430F6FC
:100D2000148883A88220F507E6A88375830022E251
:100D300080F7E49322E022C0E0F84582458345F045
:100D40007009F5F0FBFCFDFE020E05E823A2F79208
:100D5000E0F8A982AA83D2F7ABF07C007E07C374C7
:100D60009798404074FF2EFE740A89F0A4F985F02C
:100D700082740A8AF0A4FA85F083740A8BF0A4FBCB
:100D8000740529F9EA3582FAEB3583FB740035F0F6
:100D9000FCC3EC13FCEB13FBEA13FAE913F908ECC0
:100DA00070EF80BAE8C3947FF88B838EF0E4FBFC8D
:100DB000FDFEFF08C3E933F9EA33FAE58333F5832F
:100DC000EB3BD4FBEC3CD4FCED3DD4FDEE3ED4FE3D
:100DD000EF3FD4FF602D05F074052BD4FBE43CD429
:100DE000FCE43DD4FDE43ED4FEE43FD4FF75820430
:100DF000C3EF13FFEE13FEED13FDEC13FCEB13FB3F
:100E0000D582EDD8AF7826D0E020E704762B80029B
:100E1000762D087906E7C4540F4430F608B9060366
:100E2000762E08E7540F4430F60819B902E77645E4
:100E300008E5F020E704762B8004762DF40408758D
:100E4000F00A844430F608E5F04430F608E4F69001
:100E5000002675F0402220F71030F6118883A88212
:100E600020F507F6A88375830022F280F7F022AA06
:100E700082AB83ACF07D007E008A828B838CF01283
:100E80000D1BFFA3AA82AB83EF60070DBD00EA0E26
:100E900080E78D828E8322000000000000000000A9
:00000001FF
