:10000000020003758131120125E582600302006F51
:10001000780079007A007B007C007D00EC4D601C4C
:1000200088828983E493A3A882A9838A828B83F040
:10003000A3AA82AB831CBCFFE31D80E07582007520
:1000400083007C007D00EC4D600AE4F0A31CBCFF43
:10005000F51D80F27582007583007C007D00EC4DFB
:10006000600AE4F0A31CBCFFF51D80F2120124120B
:1000700001DE80FE1B5B324A0045464D382050654C
:1000800072696F64206D6561737572656D656E74FC
:100090002061742070696E2050302E312075736994
:1000A0006E672054696D657220302E0A46696C6552
:1000B0003A2025730A436F6D70696C65643A202598
:1000C000732C2025730A0A00433A5C5573657273DA
:1000D0005C4D61686D6F75645C4465736B746F70C3
:1000E0005C454C45433239315C4C6162355C50654E
:1000F00072696F645C506572696F6445464D382E55
:1001000063004D61722031312032303231003233A0
:100110003A30353A3535000D543D2566206D732053
:10012000202020002275A7007597DE7597AD43FF4C
:100130008075EF0275A71075C12075A70075A9001D
:1001400075A900E5A930E7FB75A90375A903E5A921
:1001500030E7FB43A41075E10175E20075E34075DB
:100160009810858E8E758DE6858D8B53890F43890A
:1001700020D28ED29975820022AA82438E40759237
:10018000B87593FF8592948593957591047B00C310
:10019000EB9A500BE59130E7FB53917F0B80F075A4
:1001A000910022AA82AB83BA0004BB0001227582AF
:1001B000F9C002C0031201797582F91201797582C2
:1001C000F91201797582FA120179D003D0021ABAB4
:1001D000FF011B80D25389F0438901C28C22120196
:1001E000D59001F41201A37474C0E07400C0E074EF
:1001F00080C0E01204AE158115811581740EC0E037
:100200007401C0E07480C0E07402C0E07401C0E01A
:100210007480C0E074C8C0E07400C0E07480C0E0C6
:100220007479C0E07400C0E07480C0E01204AEE5F0
:100230008124F4F581758A00758C00C28D750900E2
:1002400020A5FD30A5FDD28C30A509108D0280F8C7
:10025000050980F420A509108D0280F8050980F4B5
:10026000C28C850982120435AA82AB83ACF0FDC032
:1002700002C003C004C00590000075F080744712EE
:100280000392AA82AB83ACF0FDE58124FCF5818565
:100290008C82C002C003C004C005120435AE82AF18
:1002A00083A8F0F9C006C007C000C0019000007527
:1002B000F0807443120392AE82AF83A8F0F9E58117
:1002C00024FCF581D005D004D003D002C006C007BD
:1002D000C000C0018A828B838CF0ED120440AA8298
:1002E000AB83ACF0FDE58124FCF581AE8A7F008E06
:1002F000828F83C002C003C004C0051204CFAE8247
:10030000AF83A8F0F9D005D004D003D002C006C056
:1003100007C000C0018A828B838CF0ED120440AAD2
:1003200082AB83ACF0FDE58124FCF581C002C00303
:10033000C004C00590F4FC75F0327434120392AA24
:1003400082AB83ACF0FDE58124FCF581C002C003E3
:10035000C004C00590000075F07A7444120392AA9C
:1003600082AB83ACF0FDE58124FCF581C002C003C3
:10037000C004C0057417C0E07401C0E07480C0E020
:100380001204AEE58124F9F5819001F41201A30273
:10039000023512055EBC00030204FDEF60FA30D5A1
:1003A00002B2D1E583B4FF03020513E582B4FF0373
:1003B000020513258340072482400B0204FD248399
:1003C000145003020513F582EA8DF0A4A8F0EA8E1A
:1003D000F0A428F8E435F0F9EB8DF0A428E935F025
:1003E000F9E433CA8FF0A429F9EA35F0FAEBF88E74
:1003F000F0A429F9EA35F0FAE433FBEC8DF0A429F6
:10040000F9EA35F0FAE43BFBE88FF0A42AFAEB3581
:10041000F0FBE433CCFD8EF0A42AFAEB35F0FBE4DC
:100420003CFCED8FF0A42BFBEC35F0FC20E7031235
:10043000052B0204DCE4AC82FBFAF9748602059514
:1004400012055E7900E583B58202800D5003120526
:100450009FE583C395821205B9E5D0C465D020E13C
:1004600017EA2DFAEB3EFBEC3FFC50097401120534
:10047000B9EC4480FC0204DCC3EA9DFAEB9EFBEC81
:100480009FFC500FC3E499F9E49AFAE49BFBE49CC7
:10049000FCB2D112052B0204DC020F88858219857B
:1004A000831A85F01B850A1C9004990209DBC00899
:1004B000858108E50824FBF51CE50824FBF886196E
:1004C00008861A08861B9004991209DBD00822AC12
:1004D00083AB827A007900748E020FA6B98003EA9A
:1004E00013B34010EA2401FAE43BFBE43CFC500463
:1004F0007C800582BC000EBB000BBA0008E4F5F05E
:10050000F583F58222A2D1E582138CF092F78B83DA
:100510008A8222E4F583F58275F080F4A2D1132259
:10052000E4F583F58275F0C0747F227804EC7011D5
:10053000E58224F8500AF582E4C9CACBFCD8EF2240
:10054000EC7820058220E713D5820122C3E933F934
:10055000EA33FAEB33FBEC33FCD8EA158222AA82A9
:10056000AB83A2F73392D16002D2F7F582ACF0E50B
:100570008124F9F8E6FD08E6FE0886F008E6A2F711
:100580003392D56002D2F7F583AFF022FCABF0AA2C
:1005900083A982749EC2D1F58212052B0204DCE588
:1005A00082C583F582A2D133A2D592D11392D5EC24
:1005B000CFFCEBCEFBEACDFA226040F82582500258
:1005C00074FFF582E824F8501ECCCBCAF9E4CC24A1
:1005D000F85014CBCAF9E4CB24F8500BCAF9E4CA9A
:1005E00024F8500379002224086010F8C3EC13FCAF
:1005F000EB13FBEA13FAE913F9D8F122AA82740D7E
:10060000C0E07406C0E0C00BC00C8A82220512E470
:10061000B51202051322AA8274302AFA24C6500A9F
:1006200074072AFA3000034302208A820205FCE59F
:1006300082FAC4540FF582C002120616D002740F5B
:100640005AF582020616AA0DAB0EAC0FAD10AE1114
:10065000751820EE2EFEED235401FF4206EA2AFA19
:10066000EB33FBEC33FCED33FDC3EE95144008EEA9
:10067000C39514FE430201D518D98A0D8B0E8C0F39
:100680008D108E1122782EE624D075F00AA4FA7807
:100690002FE624D02AFA782D8603BB2D04C3E49AD2
:1006A000FA751401C3E464808AF063F08095F05019
:1006B000297518038A0374F62518401C0514E518DB
:1006C000142422F8E5182422F98704A604772E1BA7
:1006D000EBFA6004051880DE8B02EA30E70D782320
:1006E00086037824A6037823762E0AE516600AE5A9
:1006F0001604FB2514F5148005300B02051478222E
:100700008603E4BB2D0104FB7006200603300702BC
:1007100005143004030207CC300557EB600C7582DA
:100720002DC0021205FCD002801C30060C75822BF5
:10073000C0021205FCD002800D30070A758220C06D
:10074000021205FCD00278238604BC2E0C75823080
:10075000C0021205FCD0021515AC151515C3E51421
:100760009C4003020810758230C0021205FCD002C2
:1007700080E7AC151515C3E5149C500C758220C09C
:10078000021205FCD00280EA78228604BC2D0C758A
:10079000822DC0021205FCD002801C30060C75822E
:1007A0002BC0021205FCD002800D30070A75822092
:1007B000C0021205FCD00278238604BC2E5275823A
:1007C00030C0021205FCD00215158044EB600E7596
:1007D000822DC0021205FCD0021515802030060EB5
:1007E00075822BC0021205FCD0021515800F300750
:1007F0000C758220C0021205FCD0021515782386E4
:1008000003BB2E0C758230C0021205FCD0021515F8
:10081000751801C20DE5182422F88603BB450302B2
:1008200008CDBB2E348A03C3E464808BF063F08070
:1008300095F0500F758230C0031205FCD0031B8B5E
:100840000280E48B02D20DE5167038200B030208FB
:10085000CD75822E1205FC8074300D278A03EB3093
:10086000E71FC3E464808516F063F08095F0500CB8
:10087000758230C0031205FCD00315160B8B028065
:10088000DD8B02300D0EC3E464808516F063F080CA
:1008900095F05021E5182422F886038B82C00212BD
:1008A00005FCD002300D0EE5182422F88603BB2E7D
:1008B00002800215161515C3E464808516F063F0F6
:1008C0008095F04003200D050518020815C3E46467
:1008D000808516F063F08095F0500A75823012051D
:1008E000FC151680E830040FAA151515EA60087586
:1008F00082201205FC80F122E5167003300B0D7486
:10090000072516FAE515C39AF5158006E51524FAAC
:10091000F51575180078228602BA2B0F20060C7880
:100920002276202007057518010515200419AA153F
:10093000C3E464808AF063F08095F0500A758220E9
:100940001205FC151580E7C20DE5182422F8860271
:10095000BA00028069BA451F3000027665C3E464BC
:10096000808516F063F08095F0500A75823012058C
:10097000FC151680E8D20DC3E5189402E433FA7032
:1009800014EA700EC3E464808516F063F08095F07D
:100990004003300D16E5182422F886028A821205DB
:1009A000FCE51824FD50121516800E7402B51809C6
:1009B000300B0675822E1205FC0518020949300419
:1009C00019AA15C3E464808AF063F08095F0500A98
:1009D0007582201205FC151580E72285820B858320
:1009E0000CE4F512F513AA19AB1AAC1B8A828B839F
:1009F0008CF0120FCAFD74012AF519E43BF51A8C2C
:100A00001BEDFA7003020F81BA25028003020F79F1
:100A1000C204C205C206C207C208C209C20AC20B8A
:100A2000C201C202C2037514007515007516FFAB32
:100A300019AC1AAD1B8B828C838DF0120FCAFAA3EE
:100A4000AB82AC838B198C1A8D1BBA25078A821254
:100A500005FC80928A06BE3000402E8A06EE24C62F
:100A6000402774FFB51613E51575F00AA4FEEA24B5
:100A7000D02EF51570BFD20580BBE51675F00AA41F
:100A8000FEEA24D02EF51680ACBA2E0A74FFB516F5
:100A9000A4751600809F8A06BE6100400E8A06EE8D
:100AA000248540075302DFD2008002C200BA200230
:100AB0008075BA2303020B36BA2A03020B3BBA2B0A
:100AC00002805FBA2D028055BA4202805FBA4303AA
:100AD000020B80BA4403020CBBBA4503020CD5BA20
:100AE0004603020CD1BA4703020CD9BA4903020CDF
:100AF000BBBA4C02803BBA4E03020CDDBA4F030274
:100B00000CC2BA5003020C54BA5303020BA4BA55D8
:100B100003020CC7BA5803020CCC020D07D2040220
:100B20000A35D206020A35D207020A35D209020A6C
:100B300035D20A020A35D20B020A3574FFB51620E7
:100B400030090BE51C14F8881C8615020A35E51CD3
:100B500024FEF8881C8606088607188E15020A35BA
:100B600030090BE51C14F8881C8616020A35E51CB2
:100B700024FEF8881C8606088607188E16020A3599
:100B800030090AE51C14F8881C8602800FE51C2435
:100B9000FEF8881C8603088604188B028A821205D8
:100BA000FC020D0CE51C24FDF8881C860308860455
:100BB00008860518188B0D8C0E8D0F8B828C838DFB
:100BC000F012111EAB82AC838B1774FFB516038530
:100BD000171620041DC3E51795155016E515C39586
:100BE00017F515AB151515EB60087582201205FC7D
:100BF00080F1850D82850E83850FF0120FCAFBFAF6
:100C00006029AB161516C3E464808BF063F0809501
:100C1000F050188A821205FCAB0DAC0EAD0F0BBB69
:100C200000010C8B0D8C0E8D0F80C7200403020D6C
:100C30000CC3E51795154003020D0CE515C3951778
:100C4000F515AB151515EB7003020D0C758220120E
:100C500005FC80EEE51C24FDF8881C86030886044C
:100C600008860518188B0D8C0E8D0FE50FFB30E7ED
:100C7000047A438013EB546060047A50800AEB30AE
:100C8000E6047A4980027A588A82C0021205FC750D
:100C9000823A1205FC7582301205FC7582781205C5
:100CA000FCD002BA4902800BBA50028006850E823F
:100CB00012062F850D8212062F8051D20875140A54
:100CC000804A751408804575140A80407514108098
:100CD0003BD2018037D2028033D203802FE51C241F
:100CE000FDF8881C860308860408860518188B0DF5
:100CF0008C0E8D0F8B828C838DF0E512121105A363
:100D0000E51312110580058A821205FC20010620D8
:100D10000203300370E51C24FCF8881C8603088657
:100D2000040886050886061818188B0D8C0E8D0F82
:100D30008E10E50DE50EE50FE5108B828C838DF0AE
:100D4000EE120FE674FFB51603751606300327740E
:100D50007F5510FB8B11E511EB2BFB8B11E50F3051
:100D6000E70674014511F511E511246840067499F0
:100D700025114002D2023002061208F80209E612DA
:100D800006850209E6E51470030209E67B273009AF
:100D90002BE51C14F8881CE6FC3395E0FDFEFF8C67
:100DA0000D8D0E8E0F8F1020085EAC0D7D007E0025
:100DB0007F008C0D8D0E8E0F8F10804C300A1FE53A
:100DC0001C24FCF8881C860408860508860608860C
:100DD000071818188C0D8D0E8E0F8F10802AE51CA9
:100DE00024FEF8881C860408860518ED3395E0FE7D
:100DF000FF8C0D8D0E8E0F8F1020080CAC0DAD0EDC
:100E00007E007F008E0F8F10300B43E50D450E45A1
:100E10000F451060397408B5140C758230C0031288
:100E200005FCD00380287410B51423758230C003EC
:100E30001205FCD00330000C758278C0031205FC4B
:100E4000D003800A758258C0031205FCD003300815
:100E500025AC0DAD0EAE0FE510FF30E717C3E49CD7
:100E6000FCE49DFDE49EFEE49FFF8C0D8D0E8E0F35
:100E70008F108002C208751700D20C8B007511000C
:100E8000C000120646D000200C0DE511C4FCE6FDA2
:100E90004CF61888038002A6110517B20CE50D4523
:100EA0000E450F451070D68803E5157003751501C2
:100EB00020051A200417E51704FCC39515500E757C
:100EC0008220C0031205FCD003151580E930080EFE
:100ED00075822DC0031205FCD00315158024E5177B
:100EE000602030060E75822BC0031205FCD003155E
:100EF00015800F30070C758220C0031205FCD0034B
:100F0000151520041EAC151515C3E5179C50273088
:100F100005047C3080027C208C82C0031205FCD04A
:100F20000380E2C3E51795155009E515C39517F53C
:100F30001580037515008B00AB171517EB6022B2F7
:100F40000C200C0A08E6C4540FFB8B1180078603A3
:100F5000740F5BF511851182C000120616D0008057
:100F6000D72004030209E6AB151515EB700302093F
:100F7000E67582201205FC80EE8A821205FC0209C9
:100F8000E685128285138322AA82BA0A0810990282
:100F900080FB75990D10990280FB8A9922FCABF0B9
:100FA000AA83A982749EF582C2D1EC30E716D2D111
:100FB000E9F42401F9EAF43400FAEBF43400FBEC30
:100FC000F43400FC12052B0204DC20F71430F61474
:100FD0008883A88220F507E6A88375830022E28033
:100FE000F7E49322E022C0E0F84582458345F070A3
:100FF00009F5F0FBFCFDFE0210B4E823A2F792E035
:10100000F8A982AA83D2F7ABF07C007E07C374975D
:1010100098404074FF2EFE740A89F0A4F985F0828E
:10102000740A8AF0A4FA85F083740A8BF0A4FB7426
:101030000529F9EA3582FAEB3583FB740035F0FCBB
:10104000C3EC13FCEB13FBEA13FAE913F908EC7099
:10105000EF80BAE8C3947FF88B838EF0E4FBFCFD4D
:10106000FEFF08C3E933F9EA33FAE58333F583EB8E
:101070003BD4FBEC3CD4FCED3DD4FDEE3ED4FEEF86
:101080003FD4FF602D05F074052BD4FBE43CD4FC69
:10109000E43DD4FDE43ED4FEE43FD4FF758204C3B6
:1010A000EF13FFEE13FEED13FDEC13FCEB13FBD57A
:1010B00082EDD8AF7822D0E020E704762B8002764C
:1010C0002D087906E7C4540F4430F608B9060376B4
:1010D0002E08E7540F4430F60819B902E7764508A0
:1010E000E5F020E704762B8004762DF4040875F0F3
:1010F0000A844430F608E5F04430F608E4F690003F
:101100002275F0402220F71030F6118883A8822043
:10111000F507F6A88375830022F280F7F022AA82F1
:10112000AB83ACF07D007E008A828B838CF0120F43
:10113000CAFFA3AA82AB83EF60070DBD00EA0E8051
:10114000E78D828E83220000000000000000000076
:00000001FF
